{
  "contractName": "FlightSuretyApp",
  "abi": [
    {
      "constant": true,
      "inputs": [],
      "name": "REGISTRATION_FEE",
      "outputs": [
        {
          "name": "",
          "type": "uint256"
        }
      ],
      "payable": false,
      "stateMutability": "view",
      "type": "function"
    },
    {
      "inputs": [
        {
          "name": "dataContract",
          "type": "address"
        }
      ],
      "payable": false,
      "stateMutability": "nonpayable",
      "type": "constructor"
    },
    {
      "anonymous": false,
      "inputs": [
        {
          "indexed": false,
          "name": "airline",
          "type": "address"
        },
        {
          "indexed": false,
          "name": "flight",
          "type": "string"
        },
        {
          "indexed": false,
          "name": "timestamp",
          "type": "uint256"
        },
        {
          "indexed": false,
          "name": "status",
          "type": "uint8"
        }
      ],
      "name": "FlightStatusInfo",
      "type": "event"
    },
    {
      "anonymous": false,
      "inputs": [
        {
          "indexed": false,
          "name": "airline",
          "type": "address"
        },
        {
          "indexed": false,
          "name": "flight",
          "type": "string"
        },
        {
          "indexed": false,
          "name": "timestamp",
          "type": "uint256"
        },
        {
          "indexed": false,
          "name": "status",
          "type": "uint8"
        }
      ],
      "name": "OracleReport",
      "type": "event"
    },
    {
      "anonymous": false,
      "inputs": [
        {
          "indexed": false,
          "name": "index",
          "type": "uint8"
        },
        {
          "indexed": false,
          "name": "airline",
          "type": "address"
        },
        {
          "indexed": false,
          "name": "flight",
          "type": "string"
        },
        {
          "indexed": false,
          "name": "timestamp",
          "type": "uint256"
        }
      ],
      "name": "OracleRequest",
      "type": "event"
    },
    {
      "constant": true,
      "inputs": [],
      "name": "isOperational",
      "outputs": [
        {
          "name": "",
          "type": "bool"
        }
      ],
      "payable": false,
      "stateMutability": "view",
      "type": "function"
    },
    {
      "constant": false,
      "inputs": [
        {
          "name": "airline",
          "type": "address"
        }
      ],
      "name": "registerAirline",
      "outputs": [
        {
          "name": "success",
          "type": "bool"
        },
        {
          "name": "votes",
          "type": "uint256"
        }
      ],
      "payable": false,
      "stateMutability": "nonpayable",
      "type": "function"
    },
    {
      "constant": false,
      "inputs": [
        {
          "name": "candidateAirline",
          "type": "address"
        },
        {
          "name": "votingAirline",
          "type": "address"
        }
      ],
      "name": "voteForAirline",
      "outputs": [
        {
          "name": "",
          "type": "bool"
        }
      ],
      "payable": false,
      "stateMutability": "nonpayable",
      "type": "function"
    },
    {
      "constant": false,
      "inputs": [
        {
          "name": "airline",
          "type": "address"
        }
      ],
      "name": "fundAirline",
      "outputs": [],
      "payable": true,
      "stateMutability": "payable",
      "type": "function"
    },
    {
      "constant": true,
      "inputs": [],
      "name": "getOperatingAirlines",
      "outputs": [
        {
          "name": "",
          "type": "address[]"
        }
      ],
      "payable": false,
      "stateMutability": "view",
      "type": "function"
    },
    {
      "constant": false,
      "inputs": [
        {
          "name": "airline",
          "type": "address"
        },
        {
          "name": "flight",
          "type": "string"
        },
        {
          "name": "timestamp",
          "type": "uint256"
        }
      ],
      "name": "registerFlight",
      "outputs": [],
      "payable": false,
      "stateMutability": "nonpayable",
      "type": "function"
    },
    {
      "constant": false,
      "inputs": [
        {
          "name": "airline",
          "type": "address"
        },
        {
          "name": "flight",
          "type": "string"
        },
        {
          "name": "timestamp",
          "type": "uint256"
        }
      ],
      "name": "fetchFlightStatus",
      "outputs": [],
      "payable": false,
      "stateMutability": "nonpayable",
      "type": "function"
    },
    {
      "constant": false,
      "inputs": [
        {
          "name": "flightNumber",
          "type": "string"
        },
        {
          "name": "amount",
          "type": "uint256"
        }
      ],
      "name": "buyInsurance",
      "outputs": [],
      "payable": true,
      "stateMutability": "payable",
      "type": "function"
    },
    {
      "constant": false,
      "inputs": [
        {
          "name": "insuree",
          "type": "address"
        },
        {
          "name": "amount",
          "type": "uint256"
        }
      ],
      "name": "payoutInsuree",
      "outputs": [],
      "payable": false,
      "stateMutability": "nonpayable",
      "type": "function"
    },
    {
      "constant": false,
      "inputs": [
        {
          "name": "insuree",
          "type": "address"
        }
      ],
      "name": "getInsureeBalance",
      "outputs": [
        {
          "name": "",
          "type": "uint256"
        }
      ],
      "payable": false,
      "stateMutability": "nonpayable",
      "type": "function"
    },
    {
      "constant": false,
      "inputs": [],
      "name": "registerOracle",
      "outputs": [],
      "payable": true,
      "stateMutability": "payable",
      "type": "function"
    },
    {
      "constant": true,
      "inputs": [],
      "name": "getMyIndexes",
      "outputs": [
        {
          "name": "",
          "type": "uint8[3]"
        }
      ],
      "payable": false,
      "stateMutability": "view",
      "type": "function"
    },
    {
      "constant": false,
      "inputs": [
        {
          "name": "index",
          "type": "uint8"
        },
        {
          "name": "airline",
          "type": "address"
        },
        {
          "name": "flight",
          "type": "string"
        },
        {
          "name": "timestamp",
          "type": "uint256"
        },
        {
          "name": "statusCode",
          "type": "uint8"
        }
      ],
      "name": "submitOracleResponse",
      "outputs": [],
      "payable": false,
      "stateMutability": "nonpayable",
      "type": "function"
    }
  ],
  "bytecode": "0x60806040526001600260006101000a81548160ff0219169083151502179055506000600260156101000a81548160ff021916908360ff16021790555034801561004757600080fd5b506040516020806125fd83398101806040528101908080519060200190929190505050336000806101000a81548173ffffffffffffffffffffffffffffffffffffffff021916908373ffffffffffffffffffffffffffffffffffffffff16021790555080600260016101000a81548173ffffffffffffffffffffffffffffffffffffffff021916908373ffffffffffffffffffffffffffffffffffffffff16021790555050612502806100fb6000396000f3006080604052600436106100d0576000357c0100000000000000000000000000000000000000000000000000000000900463ffffffff1680630cf922d5146100d5578063339d25901461010d5780633cc0be9c146101175780635f1cc0e61461017c57806364b4f751146101cf5780636fbb8798146101fa578063bdfd987714610230578063be99a05a14610292578063c10f2700146102fe578063cc0e50d31461037d578063cd905dff146103f8578063eaf5618414610427578063f83f11c014610474578063f92e4564146104d9575b600080fd5b61010b60048036038101908080359060200190820180359060200191909192939192939080359060200190929190505050610530565b005b6101156106da565b005b34801561012357600080fd5b5061017a600480360381019080803573ffffffffffffffffffffffffffffffffffffffff16906020019092919080359060200190820180359060200191909192939192939080359060200190929190505050610802565b005b34801561018857600080fd5b506101916109d8565b6040518082600360200280838360005b838110156101bc5780820151818401526020810190506101a1565b5050505090500191505060405180910390f35b3480156101db57600080fd5b506101e4610b4d565b6040518082815260200191505060405180910390f35b61022e600480360381019080803573ffffffffffffffffffffffffffffffffffffffff169060200190929190505050610b59565b005b34801561023c57600080fd5b50610271600480360381019080803573ffffffffffffffffffffffffffffffffffffffff169060200190929190505050610d86565b60405180831515151581526020018281526020019250505060405180910390f35b34801561029e57600080fd5b506102a7611269565b6040518080602001828103825283818151815260200191508051906020019060200280838360005b838110156102ea5780820151818401526020810190506102cf565b505050509050019250505060405180910390f35b34801561030a57600080fd5b5061037b600480360381019080803560ff169060200190929190803573ffffffffffffffffffffffffffffffffffffffff16906020019092919080359060200190820180359060200191909192939192939080359060200190929190803560ff169060200190929190505050611431565b005b34801561038957600080fd5b506103de600480360381019080803573ffffffffffffffffffffffffffffffffffffffff169060200190929190803573ffffffffffffffffffffffffffffffffffffffff169060200190929190505050611a4a565b604051808215151515815260200191505060405180910390f35b34801561040457600080fd5b5061040d611a56565b604051808215151515815260200191505060405180910390f35b34801561043357600080fd5b50610472600480360381019080803573ffffffffffffffffffffffffffffffffffffffff16906020019092919080359060200190929190505050611a6d565b005b34801561048057600080fd5b506104d7600480360381019080803573ffffffffffffffffffffffffffffffffffffffff16906020019092919080359060200190820180359060200191909192939192939080359060200190929190505050611b4e565b005b3480156104e557600080fd5b5061051a600480360381019080803573ffffffffffffffffffffffffffffffffffffffff169060200190929190505050611db8565b6040518082815260200191505060405180910390f35b670de0b6b3a764000034111515156105d6576040517f08c379a000000000000000000000000000000000000000000000000000000000815260040180806020018281038252602c8152602001807f596f752063616e206f6e6c792062757920696e737572616e636520666f72207581526020017f7020746f2031206574686572000000000000000000000000000000000000000081525060400191505060405180910390fd5b600260019054906101000a900473ffffffffffffffffffffffffffffffffffffffff1673ffffffffffffffffffffffffffffffffffffffff1663e63c9bfe848433346040518563ffffffff167c010000000000000000000000000000000000000000000000000000000002815260040180806020018473ffffffffffffffffffffffffffffffffffffffff1673ffffffffffffffffffffffffffffffffffffffff1681526020018381526020018281038252868682818152602001925080828437820191505095505050505050600060405180830381600087803b1580156106bd57600080fd5b505af11580156106d1573d6000803e3d6000fd5b50505050505050565b6106e26123e9565b670de0b6b3a76400003410151515610762576040517f08c379a000000000000000000000000000000000000000000000000000000000815260040180806020018281038252601c8152602001807f526567697374726174696f6e206665652069732072657175697265640000000081525060200191505060405180910390fd5b61076b33611f87565b9050604080519081016040528060011515815260200182815250600360003373ffffffffffffffffffffffffffffffffffffffff1673ffffffffffffffffffffffffffffffffffffffff16815260200190815260200160002060008201518160000160006101000a81548160ff0219169083151502179055506020820151816001019060036107fb92919061240c565b5090505050565b600015156001848460405180838380828437820191505092505050908152602001604051809103902060000160009054906101000a900460ff1615151415156108d9576040517f08c379a00000000000000000000000000000000000000000000000000000000081526004018080602001828103825260218152602001807f54686520666c6967687420697320616c7265616479207265676973746572656481526020017f2e0000000000000000000000000000000000000000000000000000000000000081525060400191505060405180910390fd5b608060405190810160405280600115158152602001600060ff1681526020018281526020018573ffffffffffffffffffffffffffffffffffffffff168152506001848460405180838380828437820191505092505050908152602001604051809103902060008201518160000160006101000a81548160ff02191690831515021790555060208201518160000160016101000a81548160ff021916908360ff1602179055506040820151816001015560608201518160020160006101000a81548173ffffffffffffffffffffffffffffffffffffffff021916908373ffffffffffffffffffffffffffffffffffffffff16021790555090505050505050565b6109e06123e9565b600360003373ffffffffffffffffffffffffffffffffffffffff1673ffffffffffffffffffffffffffffffffffffffff16815260200190815260200160002060000160009054906101000a900460ff161515610aa4576040517f08c379a000000000000000000000000000000000000000000000000000000000815260040180806020018281038252601b8152602001807f4e6f74207265676973746572656420617320616e206f7261636c65000000000081525060200191505060405180910390fd5b600360003373ffffffffffffffffffffffffffffffffffffffff1673ffffffffffffffffffffffffffffffffffffffff168152602001908152602001600020600101600380602002604051908101604052809291908260038015610b43576020028201916000905b82829054906101000a900460ff1660ff1681526020019060010190602082600001049283019260010382029150808411610b0c5790505b5050505050905090565b670de0b6b3a764000081565b600260009054906101000a900460ff161515610c03576040517f08c379a00000000000000000000000000000000000000000000000000000000081526004018080602001828103825260258152602001807f436f6e74726163742069732063757272656e746c79206e6f74206f706572617481526020017f696f6e616c00000000000000000000000000000000000000000000000000000081525060400191505060405180910390fd5b8073ffffffffffffffffffffffffffffffffffffffff163373ffffffffffffffffffffffffffffffffffffffff16141515610ca6576040517f08c379a00000000000000000000000000000000000000000000000000000000081526004018080602001828103825260208152602001807f4f6e6c7920746865206169726c696e65206f776e65722063616e2066756e642081525060200191505060405180910390fd5b600260019054906101000a900473ffffffffffffffffffffffffffffffffffffffff1673ffffffffffffffffffffffffffffffffffffffff16637b1837de82346040518363ffffffff167c0100000000000000000000000000000000000000000000000000000000028152600401808373ffffffffffffffffffffffffffffffffffffffff1673ffffffffffffffffffffffffffffffffffffffff16815260200182815260200192505050600060405180830381600087803b158015610d6b57600080fd5b505af1158015610d7f573d6000803e3d6000fd5b5050505050565b6000806060600080600260019054906101000a900473ffffffffffffffffffffffffffffffffffffffff1673ffffffffffffffffffffffffffffffffffffffff16630b497f06336040518263ffffffff167c0100000000000000000000000000000000000000000000000000000000028152600401808273ffffffffffffffffffffffffffffffffffffffff1673ffffffffffffffffffffffffffffffffffffffff168152602001915050602060405180830381600087803b158015610e4b57600080fd5b505af1158015610e5f573d6000803e3d6000fd5b505050506040513d6020811015610e7557600080fd5b81019080805190602001909291905050501515610efa576040517f08c379a000000000000000000000000000000000000000000000000000000000815260040180806020018281038252601b8152602001807f4169726c696e65206e6565647320746f2062652066756e6465642e000000000081525060200191505060405180910390fd5b600260019054906101000a900473ffffffffffffffffffffffffffffffffffffffff1673ffffffffffffffffffffffffffffffffffffffff1663be99a05a6040518163ffffffff167c0100000000000000000000000000000000000000000000000000000000028152600401600060405180830381600087803b158015610f8057600080fd5b505af1158015610f94573d6000803e3d6000fd5b505050506040513d6000823e3d601f19601f820116820180604052506020811015610fbe57600080fd5b810190808051640100000000811115610fd657600080fd5b82810190506020810184811115610fec57600080fd5b815185602082028301116401000000008211171561100957600080fd5b5050929190505050925060009450600093508251915060048210801561102f5750600082115b1561111257600260019054906101000a900473ffffffffffffffffffffffffffffffffffffffff1673ffffffffffffffffffffffffffffffffffffffff1663bdfd9877876040518263ffffffff167c0100000000000000000000000000000000000000000000000000000000028152600401808273ffffffffffffffffffffffffffffffffffffffff1673ffffffffffffffffffffffffffffffffffffffff168152602001915050600060405180830381600087803b1580156110f157600080fd5b505af1158015611105573d6000803e3d6000fd5b505050506001945061125b565b60048210151561125a57600090505b818110156111635761114a86848381518110151561113b57fe5b90602001906020020151611a4a565b15611156576001840193505b8080600101915050611121565b61117760028361212d90919063ffffffff16565b8410151561125957600260019054906101000a900473ffffffffffffffffffffffffffffffffffffffff1673ffffffffffffffffffffffffffffffffffffffff1663bdfd9877876040518263ffffffff167c0100000000000000000000000000000000000000000000000000000000028152600401808273ffffffffffffffffffffffffffffffffffffffff1673ffffffffffffffffffffffffffffffffffffffff168152602001915050600060405180830381600087803b15801561123c57600080fd5b505af1158015611250573d6000803e3d6000fd5b50505050600194505b5b5b848494509450505050915091565b6060600260009054906101000a900460ff161515611315576040517f08c379a00000000000000000000000000000000000000000000000000000000081526004018080602001828103825260258152602001807f436f6e74726163742069732063757272656e746c79206e6f74206f706572617481526020017f696f6e616c00000000000000000000000000000000000000000000000000000081525060400191505060405180910390fd5b600260019054906101000a900473ffffffffffffffffffffffffffffffffffffffff1673ffffffffffffffffffffffffffffffffffffffff1663be99a05a6040518163ffffffff167c0100000000000000000000000000000000000000000000000000000000028152600401600060405180830381600087803b15801561139b57600080fd5b505af11580156113af573d6000803e3d6000fd5b505050506040513d6000823e3d601f19601f8201168201806040525060208110156113d957600080fd5b8101908080516401000000008111156113f157600080fd5b8281019050602081018481111561140757600080fd5b815185602082028301116401000000008211171561142457600080fd5b5050929190505050905090565b60008660ff16600360003373ffffffffffffffffffffffffffffffffffffffff1673ffffffffffffffffffffffffffffffffffffffff168152602001908152602001600020600101600060038110151561148757fe5b602091828204019190069054906101000a900460ff1660ff16148061151657508660ff16600360003373ffffffffffffffffffffffffffffffffffffffff1673ffffffffffffffffffffffffffffffffffffffff16815260200190815260200160002060010160016003811015156114fb57fe5b602091828204019190069054906101000a900460ff1660ff16145b8061158b57508660ff16600360003373ffffffffffffffffffffffffffffffffffffffff1673ffffffffffffffffffffffffffffffffffffffff168152602001908152602001600020600101600260038110151561157057fe5b602091828204019190069054906101000a900460ff1660ff16145b1515611625576040517f08c379a00000000000000000000000000000000000000000000000000000000081526004018080602001828103825260238152602001807f496e64657820646f6573206e6f74206d61746368206f7261636c65207265717581526020017f657374000000000000000000000000000000000000000000000000000000000081525060400191505060405180910390fd5b8686868686604051602001808660ff1660ff167f01000000000000000000000000000000000000000000000000000000000000000281526001018573ffffffffffffffffffffffffffffffffffffffff1673ffffffffffffffffffffffffffffffffffffffff166c010000000000000000000000000281526014018484808284378201915050828152602001955050505050506040516020818303038152906040526040518082805190602001908083835b6020831015156116fc57805182526020820191506020810190506020830392506116d7565b6001836020036101000a0380198251168184511680821785525050505050509050019150506040518091039020905060046000826000191660001916815260200190815260200160002060000160149054906101000a900460ff1615156117f1576040517f08c379a000000000000000000000000000000000000000000000000000000000815260040180806020018281038252602f8152602001807f466c69676874206f722074696d657374616d7020646f206e6f74206d6174636881526020017f206f7261636c652072657175657374000000000000000000000000000000000081525060400191505060405180910390fd5b60046000826000191660001916815260200190815260200160002060010160008360ff1660ff1681526020019081526020016000203390806001815401808255809150509060018203906000526020600020016000909192909190916101000a81548173ffffffffffffffffffffffffffffffffffffffff021916908373ffffffffffffffffffffffffffffffffffffffff160217905550507f43c853095c2752648493c88b4baac4d580d2594ffb00c6f1d4242d844514f7838686868686604051808673ffffffffffffffffffffffffffffffffffffffff1673ffffffffffffffffffffffffffffffffffffffff168152602001806020018481526020018360ff1660ff16815260200182810382528686828181526020019250808284378201915050965050505050505060405180910390a1600360046000836000191660001916815260200190815260200160002060010160008460ff1660ff16815260200190815260200160002080549050101515611a41577fe23f5229de535c091e3b7bec2665f5d698192d3b31393066e8987b7a05076b6c8686868686604051808673ffffffffffffffffffffffffffffffffffffffff1673ffffffffffffffffffffffffffffffffffffffff168152602001806020018481526020018360ff1660ff16815260200182810382528686828181526020019250808284378201915050965050505050505060405180910390a1611a408686868080601f0160208091040260200160405190810160405280939291908181526020018383808284378201915050505050508585612157565b5b50505050505050565b60006001905092915050565b6000600260009054906101000a900460ff16905090565b600260019054906101000a900473ffffffffffffffffffffffffffffffffffffffff1673ffffffffffffffffffffffffffffffffffffffff1663a048388483836040518363ffffffff167c0100000000000000000000000000000000000000000000000000000000028152600401808373ffffffffffffffffffffffffffffffffffffffff1673ffffffffffffffffffffffffffffffffffffffff16815260200182815260200192505050600060405180830381600087803b158015611b3257600080fd5b505af1158015611b46573d6000803e3d6000fd5b505050505050565b600080611b5a33612287565b91508186868686604051602001808660ff1660ff167f01000000000000000000000000000000000000000000000000000000000000000281526001018573ffffffffffffffffffffffffffffffffffffffff1673ffffffffffffffffffffffffffffffffffffffff166c010000000000000000000000000281526014018484808284378201915050828152602001955050505050506040516020818303038152906040526040518082805190602001908083835b602083101515611c335780518252602082019150602081019050602083039250611c0e565b6001836020036101000a0380198251168184511680821785525050505050509050019150506040518091039020905060408051908101604052803373ffffffffffffffffffffffffffffffffffffffff1681526020016001151581525060046000836000191660001916815260200190815260200160002060008201518160000160006101000a81548173ffffffffffffffffffffffffffffffffffffffff021916908373ffffffffffffffffffffffffffffffffffffffff16021790555060208201518160000160146101000a81548160ff0219169083151502179055509050507f3ed01f2c3fc24c6b329d931e35b03e390d23497d22b3f90e15b600343e93df118287878787604051808660ff1660ff1681526020018573ffffffffffffffffffffffffffffffffffffffff1673ffffffffffffffffffffffffffffffffffffffff1681526020018060200183815260200182810382528585828181526020019250808284378201915050965050505050505060405180910390a1505050505050565b6000808273ffffffffffffffffffffffffffffffffffffffff163373ffffffffffffffffffffffffffffffffffffffff16141515611e84576040517f08c379a00000000000000000000000000000000000000000000000000000000081526004018080602001828103825260238152602001807f596f752063616e206f6e6c7920717565727920796f7572206f776e2062616c6181526020017f6e6365000000000000000000000000000000000000000000000000000000000081525060400191505060405180910390fd5b600260019054906101000a900473ffffffffffffffffffffffffffffffffffffffff1673ffffffffffffffffffffffffffffffffffffffff1663f92e4564846040518263ffffffff167c0100000000000000000000000000000000000000000000000000000000028152600401808273ffffffffffffffffffffffffffffffffffffffff1673ffffffffffffffffffffffffffffffffffffffff168152602001915050602060405180830381600087803b158015611f4157600080fd5b505af1158015611f55573d6000803e3d6000fd5b505050506040513d6020811015611f6b57600080fd5b8101908080519060200190929190505050905080915050919050565b611f8f6123e9565b611f976123e9565b611fa083612287565b816000600381101515611faf57fe5b602002019060ff16908160ff1681525050806000600381101515611fcf57fe5b6020020151816001600381101515611fe357fe5b602002019060ff16908160ff16815250505b80600060038110151561200457fe5b602002015160ff1681600160038110151561201b57fe5b602002015160ff1614156120575761203283612287565b81600160038110151561204157fe5b602002019060ff16908160ff1681525050611ff5565b80600160038110151561206657fe5b602002015181600260038110151561207a57fe5b602002019060ff16908160ff16815250505b80600060038110151561209b57fe5b602002015160ff168160026003811015156120b257fe5b602002015160ff1614806120f157508060016003811015156120d057fe5b602002015160ff168160026003811015156120e757fe5b602002015160ff16145b15612124576120ff83612287565b81600260038110151561210e57fe5b602002019060ff16908160ff168152505061208c565b80915050919050565b60008060008311151561213f57600080fd5b828481151561214a57fe5b0490508091505092915050565b601460ff168160ff16141561228157600260019054906101000a900473ffffffffffffffffffffffffffffffffffffffff1673ffffffffffffffffffffffffffffffffffffffff16631d7932b884600f6040518363ffffffff167c010000000000000000000000000000000000000000000000000000000002815260040180806020018360ff168152602001828103825284818151815260200191508051906020019080838360005b8381101561221b578082015181840152602081019050612200565b50505050905090810190601f1680156122485780820380516001836020036101000a031916815260200191505b509350505050600060405180830381600087803b15801561226857600080fd5b505af115801561227c573d6000803e3d6000fd5b505050505b50505050565b6000806000600a91508160ff166002601581819054906101000a900460ff168092919060010191906101000a81548160ff021916908360ff16021790555060ff16430340856040516020018083600019166000191681526020018273ffffffffffffffffffffffffffffffffffffffff1673ffffffffffffffffffffffffffffffffffffffff166c01000000000000000000000000028152601401925050506040516020818303038152906040526040518082805190602001908083835b60208310151561236a5780518252602082019150602081019050602083039250612345565b6001836020036101000a0380198251168184511680821785525050505050509050019150506040518091039020600190048115156123a457fe5b06905060fa600260159054906101000a900460ff1660ff1611156123df576000600260156101000a81548160ff021916908360ff1602179055505b8092505050919050565b606060405190810160405280600390602082028038833980820191505090505090565b826003601f016020900481019282156124955791602002820160005b8382111561246657835183826101000a81548160ff021916908360ff1602179055509260200192600101602081600001049283019260010302612428565b80156124935782816101000a81549060ff0219169055600101602081600001049283019260010302612466565b505b5090506124a291906124a6565b5090565b6124d391905b808211156124cf57600081816101000a81549060ff0219169055506001016124ac565b5090565b905600a165627a7a72305820b919d97d664fb46605a590a4badac16f777d5a975427dbacdb80ab1cf19d6d740029",
  "source": "pragma solidity ^0.4.25;\n\n// It's important to avoid vulnerabilities due to numeric overflow bugs\n// OpenZeppelin's SafeMath library, when used correctly, protects agains such bugs\n// More info: https://www.nccgroup.trust/us/about-us/newsroom-and-events/blog/2018/november/smart-contract-insecurity-bad-arithmetic/\n\nimport \"../node_modules/openzeppelin-solidity/contracts/math/SafeMath.sol\";\n\n/************************************************** */\n/* FlightSurety Smart Contract                      */\n/************************************************** */\ncontract FlightSuretyApp {\n    using SafeMath for uint256; // Allow SafeMath functions to be called for all uint256 types (similar to \"prototype\" in Javascript)\n\n    /********************************************************************************************/\n    /*                                       DATA VARIABLES                                     */\n    /********************************************************************************************/\n\n    // Flight status codees\n    uint8 private constant STATUS_CODE_UNKNOWN = 0;\n    uint8 private constant STATUS_CODE_ON_TIME = 10;\n    uint8 private constant STATUS_CODE_LATE_AIRLINE = 20;\n    uint8 private constant STATUS_CODE_LATE_WEATHER = 30;\n    uint8 private constant STATUS_CODE_LATE_TECHNICAL = 40;\n    uint8 private constant STATUS_CODE_LATE_OTHER = 50;\n\n    address private contractOwner;          // Account used to deploy contract\n\n    struct Flight {\n        bool isRegistered;\n        uint8 statusCode;\n        uint256 updatedTimestamp;\n        address airline;\n    }\n    mapping(string => Flight) private flights;\n\n    bool private operational = true;\n\n    FlightSuretyData flightSuretyData;\n\n    /********************************************************************************************/\n    /*                                       FUNCTION MODIFIERS                                 */\n    /********************************************************************************************/\n\n    // Modifiers help avoid duplication of code. They are typically used to validate something\n    // before a function is allowed to be executed.\n\n    /**\n    * @dev Modifier that requires the \"operational\" boolean variable to be \"true\"\n    *      This is used on all state changing functions to pause the contract in\n    *      the event there is an issue that needs to be fixed\n    */\n    modifier requireIsOperational()\n    {\n         // Modify to call data contract's status\n        require(operational, \"Contract is currently not operational\");\n        _;  // All modifiers require an \"_\" which indicates where the function body will be added\n    }\n\n    /**\n    * @dev Modifier that requires the \"ContractOwner\" account to be the function caller\n    */\n    modifier requireContractOwner()\n    {\n        require(msg.sender == contractOwner, \"Caller is not contract owner\");\n        _;\n    }\n\n    /********************************************************************************************/\n    /*                                       CONSTRUCTOR                                        */\n    /********************************************************************************************/\n\n    /**\n    * @dev Contract constructor\n    *\n    */\n    constructor\n                                (\n                                    address dataContract\n                                )\n                                public\n    {\n        contractOwner = msg.sender;\n        flightSuretyData = FlightSuretyData(dataContract);\n    }\n\n    /********************************************************************************************/\n    /*                                       UTILITY FUNCTIONS                                  */\n    /********************************************************************************************/\n\n    function isOperational()\n                            external\n                            view\n                            returns(bool)\n    {\n        return operational;  // Modify to call data contract's status\n    }\n\n    /********************************************************************************************/\n    /*                                     SMART CONTRACT FUNCTIONS                             */\n    /********************************************************************************************/\n\n\n   /**\n    * @dev Add an airline to the registration queue\n    *\n    */\n    function registerAirline\n                            (\n                                address airline\n                            )\n                            external\n                            returns(bool success, uint256 votes)\n    {\n        require(flightSuretyData.isOperatingAirline(msg.sender), \"Airline needs to be funded.\");\n\n        address[] memory operatingAirlines = flightSuretyData.getOperatingAirlines();\n        success = false;\n        votes = 0;\n        uint numberOfOperatingAirlines = operatingAirlines.length;\n\n        if(numberOfOperatingAirlines < 4 && numberOfOperatingAirlines > 0) {\n            flightSuretyData.registerAirline(airline);\n            success = true;\n        } else if(numberOfOperatingAirlines >= 4) {\n            for (uint i = 0; i < numberOfOperatingAirlines; i++) {\n                if(voteForAirline(airline, operatingAirlines[i])) {\n                    votes = votes + 1;\n                }\n            }\n            if(votes >= numberOfOperatingAirlines.div(2)) {\n                flightSuretyData.registerAirline(airline);\n                success = true;\n            }\n        }\n\n        return (success, votes);\n    }\n\n    function voteForAirline (address candidateAirline, address votingAirline) returns(bool) {\n        return true;\n    }\n\n    function fundAirline (address airline) payable public requireIsOperational {\n        require(msg.sender == airline, \"Only the airline owner can fund \");\n        flightSuretyData.fund(airline, msg.value);\n    }\n\n    function getOperatingAirlines () external view requireIsOperational returns(address[]) {\n        return flightSuretyData.getOperatingAirlines();\n    }\n\n\n   /**\n    * @dev Register a future flight for insuring.\n    *\n    */\n    function registerFlight\n                                (\n                                    address airline,\n                                    string flight,\n                                    uint256 timestamp\n                                )\n                                external\n\n    {\n        require(flights[flight].isRegistered == false, \"The flight is already registered.\");\n\n        flights[flight] = Flight({\n             isRegistered: true,\n             statusCode: STATUS_CODE_UNKNOWN,\n             updatedTimestamp: timestamp,\n             airline: airline\n        });\n\n    }\n\n   /**\n    * @dev Called after oracle has updated flight status\n    *\n    */\n    function processFlightStatus\n                                (\n                                    address airline,\n                                    string memory flight,\n                                    uint256 timestamp,\n                                    uint8 statusCode\n                                )\n                                internal\n    {\n        if(statusCode == STATUS_CODE_LATE_AIRLINE) {\n            flightSuretyData.creditInsurees(flight, 15); // insurance multiple is 1.5x\n        }\n    }\n\n\n    // Generate a request for oracles to fetch flight information\n    function fetchFlightStatus\n                        (\n                            address airline,\n                            string flight,\n                            uint256 timestamp\n                        )\n                        external\n    {\n        uint8 index = getRandomIndex(msg.sender);\n\n        // Generate a unique key for storing the request\n        bytes32 key = keccak256(abi.encodePacked(index, airline, flight, timestamp));\n        oracleResponses[key] = ResponseInfo({\n                                                requester: msg.sender,\n                                                isOpen: true\n                                            });\n\n        emit OracleRequest(index, airline, flight, timestamp);\n    }\n\n    function buyInsurance (string flightNumber, uint256 amount) external payable {\n        require(msg.value <= 1 ether, \"You can only buy insurance for up to 1 ether\");\n        flightSuretyData.buyInsurance(flightNumber, msg.sender, msg.value);\n    }\n\n    function payoutInsuree (address insuree, uint256 amount) external {\n        flightSuretyData.payInsuree(insuree, amount);\n    }\n\n    function getInsureeBalance (address insuree) external returns(uint256) {\n        require(msg.sender == insuree, \"You can only query your own balance\");\n        uint256 balance = flightSuretyData.getInsureeBalance(insuree);\n        return balance;\n    }\n\n\n// region ORACLE MANAGEMENT\n\n    // Incremented to add pseudo-randomness at various points\n    uint8 private nonce = 0;\n\n    // Fee to be paid when registering oracle\n    uint256 public constant REGISTRATION_FEE = 1 ether;\n\n    // Number of oracles that must respond for valid status\n    uint256 private constant MIN_RESPONSES = 3;\n\n\n    struct Oracle {\n        bool isRegistered;\n        uint8[3] indexes;\n    }\n\n    // Track all registered oracles\n    mapping(address => Oracle) private oracles;\n\n    // Model for responses from oracles\n    struct ResponseInfo {\n        address requester;                              // Account that requested status\n        bool isOpen;                                    // If open, oracle responses are accepted\n        mapping(uint8 => address[]) responses;          // Mapping key is the status code reported\n                                                        // This lets us group responses and identify\n                                                        // the response that majority of the oracles\n    }\n\n    // Track all oracle responses\n    // Key = hash(index, flight, timestamp)\n    mapping(bytes32 => ResponseInfo) private oracleResponses;\n\n    // Event fired each time an oracle submits a response\n    event FlightStatusInfo(address airline, string flight, uint256 timestamp, uint8 status);\n\n    event OracleReport(address airline, string flight, uint256 timestamp, uint8 status);\n\n    // Event fired when flight status request is submitted\n    // Oracles track this and if they have a matching index\n    // they fetch data and submit a response\n    event OracleRequest(uint8 index, address airline, string flight, uint256 timestamp);\n\n\n    // Register an oracle with the contract\n    function registerOracle\n                            (\n                            )\n                            external\n                            payable\n    {\n        // Require registration fee\n        require(msg.value >= REGISTRATION_FEE, \"Registration fee is required\");\n\n        uint8[3] memory indexes = generateIndexes(msg.sender);\n\n        oracles[msg.sender] = Oracle({\n                                        isRegistered: true,\n                                        indexes: indexes\n                                    });\n    }\n\n    function getMyIndexes\n                            (\n                            )\n                            view\n                            external\n                            returns(uint8[3])\n    {\n        require(oracles[msg.sender].isRegistered, \"Not registered as an oracle\");\n\n        return oracles[msg.sender].indexes;\n    }\n\n\n\n\n    // Called by oracle when a response is available to an outstanding request\n    // For the response to be accepted, there must be a pending request that is open\n    // and matches one of the three Indexes randomly assigned to the oracle at the\n    // time of registration (i.e. uninvited oracles are not welcome)\n    function submitOracleResponse\n                        (\n                            uint8 index,\n                            address airline,\n                            string flight,\n                            uint256 timestamp,\n                            uint8 statusCode\n                        )\n                        external\n    {\n        require((oracles[msg.sender].indexes[0] == index) || (oracles[msg.sender].indexes[1] == index) || (oracles[msg.sender].indexes[2] == index), \"Index does not match oracle request\");\n\n\n        bytes32 key = keccak256(abi.encodePacked(index, airline, flight, timestamp));\n        require(oracleResponses[key].isOpen, \"Flight or timestamp do not match oracle request\");\n\n        oracleResponses[key].responses[statusCode].push(msg.sender);\n\n        // Information isn't considered verified until at least MIN_RESPONSES\n        // oracles respond with the *** same *** information\n        emit OracleReport(airline, flight, timestamp, statusCode);\n        if (oracleResponses[key].responses[statusCode].length >= MIN_RESPONSES) {\n\n            emit FlightStatusInfo(airline, flight, timestamp, statusCode);\n\n            // Handle flight status as appropriate\n            processFlightStatus(airline, flight, timestamp, statusCode);\n        }\n    }\n\n\n    function getFlightKey\n                        (\n                            address airline,\n                            string flight,\n                            uint256 timestamp\n                        )\n                        pure\n                        internal\n                        returns(bytes32)\n    {\n        return keccak256(abi.encodePacked(airline, flight, timestamp));\n    }\n\n    // Returns array of three non-duplicating integers from 0-9\n    function generateIndexes\n                            (\n                                address account\n                            )\n                            internal\n                            returns(uint8[3])\n    {\n        uint8[3] memory indexes;\n        indexes[0] = getRandomIndex(account);\n\n        indexes[1] = indexes[0];\n        while(indexes[1] == indexes[0]) {\n            indexes[1] = getRandomIndex(account);\n        }\n\n        indexes[2] = indexes[1];\n        while((indexes[2] == indexes[0]) || (indexes[2] == indexes[1])) {\n            indexes[2] = getRandomIndex(account);\n        }\n\n        return indexes;\n    }\n\n    // Returns array of three non-duplicating integers from 0-9\n    function getRandomIndex\n                            (\n                                address account\n                            )\n                            internal\n                            returns (uint8)\n    {\n        uint8 maxValue = 10;\n\n        // Pseudo random number...the incrementing nonce adds variation\n        uint8 random = uint8(uint256(keccak256(abi.encodePacked(blockhash(block.number - nonce++), account))) % maxValue);\n\n        if (nonce > 250) {\n            nonce = 0;  // Can only fetch blockhashes for last 256 blocks so we adapt\n        }\n\n        return random;\n    }\n\n// endregion\n}\n\n\ncontract FlightSuretyData {\n    function registerAirline(address airline) external;\n    function fund(address airline, uint256 amount) payable external;\n    function getAccountBalance (address airline) external view returns(bool);\n    function getOperatingAirlines () external view returns(address[]);\n    function isOperatingAirline(address airline) external view returns(bool);\n    function creditInsurees(string flightNumber, uint8 multiple) external;\n    function payInsuree (address insuree, uint256 amount) external;\n    function buyInsurance (string flightNumber, address insuree, uint256 amount) external payable;\n    function getInsureeBalance (address insuree) external returns(uint);\n}",
  "sourcePath": "C:\\Users\\indu\\Desktop\\projects\\blockchain-course\\FlightSurety-master\\FlightSurety-master\\contracts\\FlightSuretyApp.sol",
  "compiler": {
    "name": "solc",
    "version": "0.4.26+commit.4563c3fc.Emscripten.clang"
  },
  "schemaVersion": "2.0.3",
  "updatedAt": "2021-10-11T15:22:55.439Z"
}